:03000000020800F3
:0C080000787FE4F6D8FD75811B020847E4
:1008A400140800C000F900A400B00099009200826E
:0608B40000F8008000982E
:10088C00758905E4F58CF58AD28CAF8AEF25E024C6
:08089C0008F808E6F5A080F25F
:10080C0002088CE493A3F8E493A34003F68001F26E
:10081C0008DFF48029E493A3F85407240CC8C333ED
:10082C00C4540F4420C8834004F456800146F6DFBC
:10083C00E4800B01020408102040809008A4E47EA0
:10084C00019360BCA3FF543F30E509541FFEE493B1
:10085C00A360010ECF54C025E060A840B8E493A378
:10086C00FAE493A3F8E493A3C8C582C8CAC583CAA3
:10087C00F0A3C8C582C8CAC583CADFE9DEE780BE5B
:0108BA00003D
:00000001FF
