:030000000208EE05
:0C08EE00787FE4F6D8FD75810C0208004C
:1008B70048692053756468617273616E0057656C8F
:1008C700636F6D652E0057656C636F6D6520486FAC
:0308D7006D65004C
:100800001208DA7BFF7A0879B712088C7FC01208C9
:10081000FA7BFF7A0879C412088C7FE87E031208FD
:10082000397F011208FA7BFF7A0879CD12088C8093
:01083000FEC9
:1008DA007F381208FA7F0C1208FA7F011208FA7F91
:0408EA00800208FA86
:0A08FA008FA0C2B0120831C2B22272
:06088C008B088A09890AAD
:10089200E4F50BF50CAB08AA09A90A850C82850BB5
:1008A2008312085FFF600D120904050CE50C70E568
:0408B200050B80E1D1
:0108B600221F
:0A0904008FA0D2B0120831C2B22257
:08083100C2B1D2B27F0A7E00C1
:10083900E4FDFCC3ED9FEE6480F8EC6480985015EC
:10084900E4FBFA0BBB00010AEB64FA4A70F50DBD33
:0508590000010C80DE2F
:01085E002277
:10085F00BB010CE58229F582E5833AF583E022504E
:10086F0006E92582F8E622BBFE06E92582F8E22298
:0D087F00E58229F582E5833AF583E49322B2
:00000001FF
